:100000000C9431000C94A4050C94D1050C94FE05BD
:100010000C944E000C944E000C944E000C944E0028
:100020000C944E000C944E000C944E000C944E0018
:100030000C944E000C944E000C944E000C944E0008
:100040000C944E000C944E000C944E000C944E00F8
:100050000C944E0059076607730780078D079A07AF
:10006000A70711241FBECFE5D8E0DEBFCDBF10E04B
:10007000A0E6B0E0EEE3F3E102C005900D92AC3EE5
:10008000B107D9F721E0ACEEB0E001C01D92A0307D
:10009000B207E1F70E9444040C949D090C940000FF
:1000A000CF93DF93CDB7DEB76E970FB6F894DEBF70
:1000B0000FBECDBF8AE0E0E6F0E0DE0111960190D0
:1000C0000D928A95E1F7FE013B968AE0DF011D92D1
:1000D0008A95E9F787E0E4E7F0E0DE0155960190C4
:1000E0000D928A95E1F7FE017C9683E0DF011D9277
:1000F0008A95E9F761E0CE0101960E948D056FE0D7
:10010000CE0145960E948D056E960FB6F894DEBF1F
:100110000FBECDBFDF91CF91089580E188BB0E94D3
:100120002B0681E00E94750680E00E94340680E084
:100130000E94410682E00E944E0640E064E082E4B4
:100140000E94EF048FE40E9481060895DC0140E0E4
:1001500003C095130FC04F5F242F30E0FD01E20F65
:10016000F31F9081992331F0FB01E20FF31F5081BF
:100170005111EFCF911108C0FB01E20FF31F8081F5
:10018000882321F080E0089580E0089581E00895BB
:10019000CF93DF93CDB7DEB72C970FB6F894DEBFC1
:1001A0000FBECDBF0E948506CE0101960E94E507D5
:1001B0008EE790E00E94DA07CE0101960E94DA07EE
:1001C00061E870E0CE0101960E94A600813049F4FA
:1001D00040E064E082E40E94EF0484E50E9481062E
:1001E000E3CF6CE870E0CE0101960E94A60081305A
:1001F00049F440E064E082E40E94EF0486E40E9457
:100200008106D2CF67E970E0CE0101960E94A60078
:10021000813049F440E064E082E40E94EF0484E726
:100220000E948106C1CF62EA70E0CE0101960E9471
:10023000A600813009F0B8CF40E064E082E40E947B
:10024000EF0486E60E948106AFCFCF93DF93CDB750
:10025000DEB7C654D1090FB6F894DEBF0FBECDBFCE
:100260000E94500066E084E40E94F10367E084E4A9
:100270000E94F10341E066E081E00E9424040E94B4
:1002800038020E94C70781E00E94C70361E081E055
:100290000E94D4038DEA90E00E94B903CE0101963A
:1002A0000E94E507CE0101960E94DA078EE790E0F2
:1002B0000E94DA0781E00E94C7038DEB90E00E9464
:1002C000B903CE0145960E94E507CE0145960E94EE
:1002D000DA078EE790E00E94DA0761E0CE014F96E0
:1002E0000E947A056FE0CE01C3960E947A05BE0196
:1002F000615E7F4FCE0101960E94A6008130B1F56C
:10030000BE016D5C7F4FCE0145960E94A6008130F4
:1003100069F548E066E084E40E940E0448E067E086
:1003200084E40E94FC036DEC7CEC8CE49EE30E9470
:1003300037042FEB87E299E0215080409040E1F7AD
:1003400000C0000060E070E0CB010E94370481E053
:100350000E94C70361E081E00E94D4038CEC90E02E
:100360000E94B9030E948D000E94C80081E00E9493
:10037000C70361E081E00E94D40389ED90E00E9410
:10038000B9038FE493EC0197F1F700C0000048E057
:1003900067E084E40E940E0448E066E084E40E9482
:1003A000FC0380E0CA5BDF4F0FB6F894DEBF0FBEE0
:1003B000CDBFDF91CF910895CF93C82F40E062E089
:1003C00084E40E94EF0440E063E084E40E94EF04D0
:1003D0004C2F441F4427441F60E083E40E94EF0435
:1003E000C6FB442740F961E083E40E94EF04C5FBAB
:1003F000442740F962E083E40E94EF04C4FB4427F1
:1004000040F963E083E40E94EF04C3FB442740F912
:1004100064E083E40E94EF04C2FB442740F965E0F6
:1004200083E40E94EF04C1FB442740F966E083E4C3
:100430000E94EF044C2F417067E083E40E94EF04B8
:1004400041E063E084E40E94EF048FE19EE40197C1
:10045000F1F700C0000040E063E084E40E94EF0494
:100460008FE19EE40197F1F700C00000CF9108955D
:1004700041E060E081E40E94560441E062E084E4EF
:100480000E94560441E063E084E40E94560441E087
:1004900060E083E40E94560441E061E083E40E944E
:1004A000560441E062E083E40E94560441E063E0C8
:1004B00083E40E9456042FEB8AED90E021508040A7
:1004C0009040E1F700C0000041E064E083E40E9456
:1004D000560441E065E083E40E94560441E066E092
:1004E00083E40E94560441E067E083E40E945604DE
:1004F00040E062E084E40E94EF0440E063E084E4D2
:100500000E94EF0440E060E083E40E94EF0440E0DA
:1005100061E083E40E94EF0441E062E083E40E9432
:10052000EF0441E063E083E40E94EF0441E064E013
:1005300083E40E94EF0440E065E083E40E94EF045E
:1005400040E066E083E40E94EF0440E067E083E47B
:100550000E94EF0441E063E084E40E94EF048FE135
:100560009EE40197F1F700C0000040E063E084E4FE
:100570000E94EF048FE19EE40197F1F700C00000B4
:100580008FEC97E00197F1F700C0000040E062E0D7
:1005900084E40E94EF0440E063E084E40E94EF04FE
:1005A00040E060E083E40E94EF0440E061E083E427
:1005B0000E94EF0440E062E083E40E94EF0440E028
:1005C00063E083E40E94EF0441E064E083E40E947E
:1005D000EF0441E065E083E40E94EF0440E066E060
:1005E00083E40E94EF0440E067E083E40E94EF04AC
:1005F00041E063E084E40E94EF048FE19EE4019710
:10060000F1F700C0000040E063E084E40E94EF04E2
:100610008FE19EE40197F1F700C000008FEC97E0B6
:100620000197F1F700C0000040E062E084E40E941E
:10063000EF0440E063E084E40E94EF0440E060E007
:1006400083E40E94EF0440E061E083E40E94EF0451
:1006500040E062E083E40E94EF0440E063E083E472
:100660000E94EF0440E064E083E40E94EF0440E075
:1006700065E083E40E94EF0440E066E083E40E94CA
:10068000EF0441E067E083E40E94EF0441E063E0AF
:1006900084E40E94EF048FE19EE40197F1F700C02B
:1006A000000040E063E084E40E94EF048FE19EE4F8
:1006B0000197F1F700C000008FE99FE00197F1F783
:1006C00000C0000040E062E084E40E94EF0440E0EB
:1006D00063E084E40E94EF0440E060E083E40E9471
:1006E000EF0440E061E083E40E94EF0440E062E058
:1006F00083E40E94EF0440E063E083E40E94EF049F
:1007000040E064E083E40E94EF0441E065E083E4BC
:100710000E94EF0441E066E083E40E94EF0440E0C1
:1007200067E083E40E94EF0441E063E084E40E9418
:10073000EF048FE19EE40197F1F700C0000040E074
:1007400063E084E40E94EF048FE19EE40197F1F7F7
:1007500000C0000081E00895CF93C82F41E060E021
:1007600081E40E94EF048C2F0E94DC0181E0CF9194
:100770000895CF93DF93EC0103C00E94AC03219650
:1007800088818111FACF81E0DF91CF910895CF93D5
:10079000C82F40E060E081E40E94EF048C2F0E94AB
:1007A000DC0181E0CF910895CF93DF9300D0CDB7E6
:1007B000DEB790E8998390EC9A83E82FF0E03197C8
:1007C00081E090E08C0F9D1FE80FF91F8081860F5C
:1007D00081500E94C70381E00F900F90DF91CF916D
:1007E00008959FEB980F943028F441E00E9456043E
:1007F00081E0089580E008959FEB980F943060F4B5
:10080000483029F441E00E94EF0481E0089540E07F
:100810000E94EF0481E0089580E008959FEB980F17
:10082000943070F4483029F440E00E94EF0481E0F5
:100830000895493039F441E00E94EF0481E00895C1
:1008400080E0089581E00895CF93DF93C82F862F2D
:10085000D42F0E944F078D2F0E94B4078C2F0E9427
:10086000D20682E30E948906DF91CF9108950E940B
:10087000CF0641E064E084E40E94560441E065E074
:1008800084E40E9456040895CF93DF93C3E0D0E040
:1008900005C00E942501019721F021971C161D0615
:1008A000C4F380E090E0DF91CF9108959FEB980F23
:1008B000943008F086C0423008F085C0823449F197
:1008C00018F4813441F081C0833409F440C0843489
:1008D00009F45AC07AC041110DC02AB381E090E0FA
:1008E00002C0880F991F6A95E2F7809582238ABB20
:1008F00081E00895413009F06AC02AB381E090E0B8
:1009000002C0880F991F6A95E2F7822B8ABB81E0AB
:10091000089541110DC027B381E090E002C0880F17
:10092000991F6A95E2F78095822387BB81E008953D
:10093000413009F04EC027B381E090E002C0880F3B
:10094000991F6A95E2F7822B87BB81E008954111D8
:100950000DC024B381E090E002C0880F991F6A9512
:10096000E2F78095822384BB81E00895413099F5B8
:1009700024B381E090E002C0880F991F6A95E2F7E6
:10098000822B84BB81E0089541110DC021B381E029
:1009900090E002C0880F991F6A95E2F78095822344
:1009A00081BB81E008954130C1F421B381E090E042
:1009B00002C0880F991F6A95E2F7822B81BB81E004
:1009C000089580E0089580E0089581E0089581E031
:1009D000089581E0089581E0089581E008959FEBF6
:1009E000980F943008F06BC0423008F06AC082342F
:1009F00009F118F4813439F066C0833491F18434FC
:100A000009F446C060C02BB381E090E0062E02C01E
:100A1000880F991F0A94E2F7809582238BBB8BB3D2
:100A200050E002C0440F551F6A95E2F7482B4BBBBC
:100A300081E0089528B381E090E0062E02C0880F7F
:100A4000991F0A94E2F78095822388BB88B350E00F
:100A500002C0440F551F6A95E2F7482B48BB81E05E
:100A6000089525B381E090E0062E02C0880F991FFB
:100A70000A94E2F78095822385BB85B350E002C0DB
:100A8000440F551F6A95E2F7482B45BB81E0089556
:100A900022B381E090E0062E02C0880F991F0A94CD
:100AA000E2F78095822382BB82B350E002C0440FFC
:100AB000551F6A95E2F7482B42BB81E0089580E01C
:100AC000089580E0089581E00895E199FECF6EBB1E
:100AD0008DBB8CB384608CBB8CB382608CBB08955F
:100AE000FC01E199FECF6EBB9CB391609CBB8DB3C2
:100AF000808308951F93CF93DF93EC01162F612F0E
:100B0000CE010E9470058881882319F021961F5F0D
:100B1000F6CFDF91CF911F9108950F931F93CF933D
:100B20008C01C62F06C06C2F0E9465050F5F1F4FFA
:100B3000CF5FF80180818111F6CF6C2F0E9465058F
:100B4000CF911F910F9108951F920F920FB60F92A0
:100B500011242F933F934F935F936F937F938F93C2
:100B60009F93AF93BF93EF93FF93E091F600F091C3
:100B7000F700309729F08091EC009091ED000995F5
:100B8000FF91EF91BF91AF919F918F917F916F9165
:100B90005F914F913F912F910F900FBE0F901F903B
:100BA00018951F920F920FB60F9211242F933F9317
:100BB0004F935F936F937F938F939F93AF93BF9365
:100BC000EF93FF93E091F400F091F500309729F056
:100BD0008091EE009091EF000995FF91EF91BF9108
:100BE000AF919F918F917F916F915F914F913F91C5
:100BF0002F910F900FBE0F901F9018951F920F927C
:100C00000FB60F9211242F933F934F935F936F93DF
:100C10007F938F939F93AF93BF93EF93FF93E09155
:100C2000F200F091F300309729F08091F00090915C
:100C3000F1000995FF91EF91BF91AF919F918F9135
:100C40007F916F915F914F913F912F910F900FBEC8
:100C50000F901F90189580EB87BB8DB180648DB984
:100C60008DB180618DB90895882319F0813029F004
:100C700008958DB1877F8DB908958DB188608DB944
:100C80000895882319F0813029F008958DB18B7F64
:100C90008DB908958DB184608DB90895813069F062
:100CA00028F0823089F08330B1F01BC08DB18E7F87
:100CB0008DB98DB18D7F8DB914C08DB181608DB925
:100CC0008DB18D7F8DB90DC08DB18E7F8DB98DB1F8
:100CD00082608DB906C08DB181608DB98DB18260A1
:100CE0008DB98EB18E7F8EB90895811104C08DB1FA
:100CF00080628DB90895813019F48DB18F7D8DB9E1
:100D000008958FB9779BFECF08958DB180688DB916
:100D10000895682F70E080E090E00E949E089B019B
:100D2000AC0160E070E080E89FE30E94FB07209147
:100D3000F8003091F9004091FA005091FB000E94B8
:100D4000FB070E946D086093FE007093FF007BBD5F
:100D50008091FE008ABD0895CF92DF92EF92FF92BC
:100D60006B017C016091FE007091FF006F5F7F4F0F
:100D700080E090E00E949C08A70196010E942A0949
:100D80000E946D086093FC007093FD0079BD809116
:100D9000FC0088BDFF90EF90DF90CF9008950E94F7
:100DA000AC0608958230C9F128F4882351F08130CF
:100DB000F1F00895833009F446C0843009F459C035
:100DC00008958EB58E7F8EBD8EB582608EBD8EB538
:100DD0008B7F8EBD8DEB97E3A6E8B5E38093F8009B
:100DE0009093F900A093FA00B093FB0008958EB59C
:100DF00081608EBD8EB582608EBD8EB58B7F8EBDBF
:100E00008DEB97E3A6E0B7E38093F8009093F900A9
:100E1000A093FA00B093FB0008958EB58E7F8EBD2F
:100E20008EB58D7F8EBD8EB584608EBD8DEB97E3C4
:100E3000A6E0B8E38093F8009093F900A093FA003D
:100E4000B093FB0008958EB581608EBD8EB58D7F09
:100E50008EBD8EB584608EBD8DEB97E3A6E0B9E3C1
:100E60008093F8009093F900A093FA00B093FB00F0
:100E700008958EB581608EBD8EB58D7F8EBD8EB589
:100E80008B7F8EBD8DEB97E3A6E0B4E38093F800F3
:100E90009093F900A093FA00B093FB00089590E0BE
:100EA0008730910508F05FC0FC01E65DFF4F0C94B0
:100EB00097098FB581608FBD8FB58D7F8FBD8EB542
:100EC000877F8EBD8EB58F7E8EBD08958FB5816074
:100ED0008FBD8FB58D7F8FBD8EB588608EBD8EB571
:100EE0008F7E8EBD08958FB58E7F8FBD8FB58D7F20
:100EF0008FBD8EB5877F8EBD8EB580618EBD089506
:100F00008FB581608FBD8FB58D7F8FBD8EB5877F8B
:100F10008EBD8EB580618EBD08958FB58E7F8FBDDD
:100F20008FB582608FBD8EB5877F8EBD8EB5806197
:100F30008EBD08958FB58E7F8FBD8FB582608FBDBA
:100F40008EB588608EBD8EB580618EBD08958FB5DB
:100F500081608FBD8FB582608FBD8EB588608EBD7C
:100F60008EB580618EBD0895882319F0813041F0DF
:100F700008958FB580618FBD8FB580628FBD089554
:100F80008FB58F7E8FBD8FB580628FBD08958AB17A
:100F90008B7F8AB98AB188608AB98AB180618AB93F
:100FA0008BB182608BB986E880BD87E689B910BCB9
:100FB00081E00895FC0104C05D9BFECF8CB93196A1
:100FC00080818111F9CF81E00895AC015F9BFECF54
:100FD0008CB120E05F9BFECF9CB1891731F0FA0104
:100FE000E20FF11D90832F5FF5CFFA01E20FF11DA3
:100FF000108281E008950E940F080C94F0080E946E
:10100000E90858F00E94E20840F029F45F3F29F017
:101010000C94D90851110C9424090C94DF080E94F7
:10102000010968F39923B1F3552391F3951B550BEF
:10103000BB27AA2762177307840738F09F5F5F4FAB
:10104000220F331F441FAA1FA9F335D00E2E3AF0EA
:10105000E0E832D091505040E695001CCAF72BD002
:10106000FE2F29D0660F771F881FBB1F2617370753
:101070004807AB07B0E809F0BB0B802DBF01FF2785
:1010800093585F4F3AF09E3F510578F00C94D90881
:101090000C9424095F3FE4F3983ED4F3869577954A
:1010A0006795B795F7959F5FC9F7880F911D96953E
:1010B000879597F90895E1E0660F771F881FBB1F9A
:1010C000621773078407BA0720F0621B730B840B47
:1010D000BA0BEE1F88F7E09508950E94090988F081
:1010E0009F5798F0B92F9927B751B0F0E1F0660FEC
:1010F000771F881F991F1AF0BA95C9F714C0B1302D
:1011000091F00E942309B1E008950C942309672F00
:10111000782F8827B85F39F0B93FCCF3869577955B
:101120006795B395D9F73EF4909580957095619544
:101130007F4F8F4F9F4F0895E89409C097FB3EF46F
:1011400090958095709561957F4F8F4F9F4F992314
:10115000A9F0F92F96E9BB279395F6958795779592
:101160006795B795F111F8CFFAF4BB0F11F460FF52
:101170001BC06F5F7F4F8F4F9F4F16C0882311F0AA
:1011800096E911C0772321F09EE8872F762F05C0BE
:10119000662371F096E8862F70E060E02AF09A9559
:1011A000660F771F881FDAF7880F9695879597F94E
:1011B000089597F99F6780E870E060E008959FEFD9
:1011C00080EC089500240A941616170618060906DE
:1011D000089500240A9412161306140605060895AD
:1011E000092E0394000C11F4882352F0BB0F40F435
:1011F000BF2B11F460FF04C06F5F7F4F8F4F9F4F75
:10120000089557FD9058440F551F59F05F3F71F0F6
:101210004795880F97FB991F61F09F3F79F087955D
:101220000895121613061406551FF2CF4695F1DFE6
:1012300008C0161617061806991FF1CF8695710576
:10124000610508940895E894BB2766277727CB01AA
:1012500097F908950E943D090C94F0080E94E20855
:1012600038F00E94E90820F0952311F00C94D90879
:101270000C94DF0811240C9424090E94010970F3D6
:10128000959FC1F3950F50E0551F629FF001729F2B
:10129000BB27F00DB11D639FAA27F00DB11DAA1F3A
:1012A000649F6627B00DA11D661F829F2227B00D87
:1012B000A11D621F739FB00DA11D621F839FA00D12
:1012C000611D221F749F3327A00D611D231F849F62
:1012D000600D211D822F762F6A2F11249F575040B9
:1012E0009AF0F1F088234AF0EE0FFF1FBB1F661F34
:1012F000771F881F91505040A9F79E3F510580F0FD
:101300000C94D9080C9424095F3FE4F3983ED4F37D
:10131000869577956795B795F795E7959F5FC1F7A0
:10132000FE2B880F911D9695879597F90895EE0FDE
:0E133000FF1F0590F491E02D0994F894FFCF73
:10133E004D656E6E6120456964000000000000007E
:10134E0000000000313233343536000000000D0A43
:10135E00004C65646F6E526F6F6D31004C65646F3B
:10136E0066526F6F6D31004C65646F6E526F6F6DAC
:10137E0032004C65646F66526F6F6D3200456E744D
:10138E0065722075736572206E616D6500456E74B1
:10139E0065722050617373776F72640020536D61B4
:1013AE00727420486F6D6520002057726F6E672033
:0C13BE0050617373776F72642020200070
:00000001FF
