S0180000536D61727420486F6D655F536C6176652E7372656302
S11300000C9432000C9429070C9456070C94830723
S11300100C944F000C944F000C944F000C944F0020
S11300200C944F000C944F000C94B2090C94520998
S11300300C94FD070C944F000C944F000C944F004B
S11300400C94EF050C944F000C944F000C944F004B
S11300500C944F009B059E05A205A605AA05AE05B6
S1130060B205B60511241FBECFE5D8E0DEBFCDBF73
S113007010E0A0E6B0E0EEEEF7E102C005900D92CC
S1130080AE36B107D9F720E0AEE6B0E001C01D926C
S1130090AA39B207E1F70E9438050C94F50B0C94C9
S11300A00000CF93DF931F92CDB7DEB7CE01019648
S11300B00E94E8078981843531F448E062E081E4F4
S11300C00E94DD0417C0863431F448E062E081E424
S11300D00E94EF040FC0843731F448E063E081E408
S11300E00E94DD0407C0863629F448E063E081E419
S11300F00E94EF040F90DF91CF9108950E949E0219
S113010063E082E40E9401020895CF93DF9300D05C
S1130110CDB7DEB784E00E94050561E081E00E946E
S1130120970480E690E00E941F04CE0101960E948D
S1130130160589819A818F31910588F442E060E047
S113014070E0CB010E94100261E082E00E949704FB
S113015069817A8180E090E00E942D045CC09C015A
S11301602F5131092431310590F442E060E070E010
S113017080E89EE30E94100261E082E00E949704FE
S113018069817A8180E090E00E942D0444C09C0142
S1130190235331092431310590F442E060E070E0EA
S11301A080E09FE30E94100261E082E00E949704D5
S11301B069817A8180E090E00E942D042CC09C012A
S11301C0275431092431310590F442E060E070E0B5
S11301D080E49FE30E94100261E082E00E949704A1
S11301E069817A8180E090E00E942D0414C08B35EF
S11301F0910588F042E060E070E080E89FE30E94AF
S1130200100261E082E00E94970469817A8180E0B3
S113021090E00E942D040F900F90DF91CF910895EC
S1130220CF93DF931F92CDB7DEB70E94B00781E072
S11302300E94DC0780E00E94C20780E00E94CF0792
S113024040E067E082E40E94B306CE0101960E947A
S1130250E80789818F3411F080E001C081E00F90BC
S1130260DF91CF91089540E067E082E40E94B306F5
S11302700E94EE0760E070E081E590E00E94F207E2
S11302807894089560E084E40E94D20461E084E4F8
S11302900E94D20462E084E40E94D20467E084E411
S11302A00E94D20462E081E40E94D20463E081E40B
S11302B00E94D2040895CF93DF9300D0CDB7DEB768
S11302C085E090E00E94B404CE0101960E94C5042A
S11302D089819A819C01295E334027313105A8F434
S11302E048E060E084E40E94DD0448E061E084E4E6
S11302F00E94DD0448E062E084E40E94DD0448E0FA
S113030067E084E40E94DD0467C09C012D5B3240F9
S11303102B323140A8F448E060E084E40E94EF040A
S113032048E061E084E40E94DD0448E062E084E4A3
S11303300E94DD0448E067E084E40E94DD044CC0D0
S11303409C012955324023363105A8F448E060E089
S113035084E40E94EF0448E061E084E40E94EF0436
S113036048E062E084E40E94DD0448E067E084E45D
S11303700E94DD0431C09C01325029353105A8F4B6
S113038048E060E084E40E94EF0448E061E084E433
S11303900E94EF0448E062E084E40E94EF0448E035
S11303A067E084E40E94DD0417C0843F9140A0F418
S11303B048E060E084E40E94EF0448E061E084E403
S11303C00E94EF0448E062E084E40E94EF0448E005
S11303D067E084E40E94EF040F900F90DF91CF91C7
S11303E008950E9442010E947E0040E061E080E0A6
S11303F00E9441050E9433010E9485000E945B0116
S1130400FBCFCF93DF93C82FD62F41E00E941A066B
S113041040E06D2F8C2F0E94B306DF91CF91089599
S1130420CF92DF92EF92FF92CF936B017C01C42FA6
S1130430423079F483E00E9453088C2F0E942808EC
S113044084E00E94D10840E0C701B6010E94EB0895
S113045013C0433089F483E00E9453088C2F0E9418
S1130460280884E00E940C09C701B6010E94510AC1
S1130470862F60E00E942709CF91FF90EF90DF90D4
S1130480CF900895CF93C82F40E064E084E40E94A5
S1130490B30640E063E084E40E94B3064C2F441F9B
S11304A04427441F60E083E40E94B306C6FB44274C
S11304B040F961E083E40E94B306C5FB442740F998
S11304C062E083E40E94B306C4FB442740F963E07E
S11304D083E40E94B306C3FB442740F964E083E449
S11304E00E94B306C2FB442740F965E083E40E94FE
S11304F0B306C1FB442740F966E083E40E94B306D7
S11305004C2F417067E083E40E94B30641E063E04E
S113051084E40E94B3068FE19EE40197F1F700C0E2
S1130520000040E063E084E40E94B3068FE19EE4AF
S11305300197F1F700C00000CF91089541E065E014
S113054084E40E941A0641E064E084E40E941A06EE
S113055041E063E084E40E941A0641E060E083E441
S11305600E941A0641E061E083E40E941A0641E019
S113057062E083E40E941A0641E063E083E40E949F
S11305801A062FEB8AED90E0215080409040E1F76D
S113059000C0000041E064E083E40E941A0641E0E8
S11305A065E083E40E941A0641E066E083E40E9469
S11305B01A0641E067E083E40E941A0640E064E022
S11305C084E40E94B30640E063E084E40E94B3063E
S11305D040E060E083E40E94B30640E061E083E42D
S11305E00E94B30641E062E083E40E94B30641E066
S11305F063E083E40E94B30641E064E083E40E9484
S1130600B30640E065E083E40E94B30640E066E0A0
S113061083E40E94B30640E067E083E40E94B306EB
S113062041E063E084E40E94B3068FE19EE4019715
S1130630F1F700C0000040E063E084E40E94B306E8
S11306408FE19EE40197F1F700C000008FEC97E082
S11306500197F1F700C0000040E064E084E40E94E8
S1130660B30640E063E084E40E94B30640E060E047
S113067083E40E94B30640E061E083E40E94B30691
S113068040E062E083E40E94B30640E063E083E478
S11306900E94B30641E064E083E40E94B30641E0B3
S11306A065E083E40E94B30640E066E083E40E94D0
S11306B0B30640E067E083E40E94B30641E063E0F0
S11306C084E40E94B3068FE19EE40197F1F700C031
S11306D0000040E063E084E40E94B3068FE19EE4FE
S11306E00197F1F700C000008FEC97E00197F1F754
S11306F000C0000040E064E084E40E94B30640E0EF
S113070063E084E40E94B30640E060E083E40E9476
S1130710B30640E061E083E40E94B30640E062E097
S113072083E40E94B30640E063E083E40E94B306DE
S113073040E064E083E40E94B30640E065E083E4C3
S11307400E94B30640E066E083E40E94B30641E001
S113075067E083E40E94B30641E063E084E40E941E
S1130760B3068FE19EE40197F1F700C0000040E07A
S113077063E084E40E94B3068FE19EE40197F1F7FD
S113078000C000008FE99FE00197F1F700C000006E
S113079040E064E084E40E94B30640E063E084E463
S11307A00E94B30640E060E083E40E94B30640E0A8
S11307B061E083E40E94B30640E062E083E40E94C7
S11307C0B30640E063E083E40E94B30640E064E0E3
S11307D083E40E94B30641E065E083E40E94B3062B
S11307E041E066E083E40E94B30640E067E083E40E
S11307F00E94B30641E063E084E40E94B3068FE103
S11308009EE40197F1F700C0000040E063E084E457
S11308100E94B3068FE19EE40197F1F700C0000047
S113082081E00895CF93C82F41E065E084E40E94FD
S1130830B3068C2F0E94420281E0CF910895CF939A
S1130840DF93EC0103C00E94120421968881811178
S1130850FACF81E0DF91CF910895BF92CF92DF92DA
S1130860EF92FF920F931F93CF93DF93C0E0C12CBD
S1130870D12C760121C02AE030E040E050E00E9413
S1130880C10BCC0CDD1CEE1CFF1CD701C601880F6C
S1130890991FAA1FBB1F880F991FAA1FBB1FC80E31
S11308A0D91EEA1EFB1EC60ED11CE11CF11C622FD0
S11308B0732F842F952FCF5F6115710581059105E5
S11308C0D1F61BC0C701B6012AE030E040E050E099
S11308D00E94C10BB22E032F142FD52FF62E41E008
S11308E065E084E40E94B30680E38F0D0E94420217
S11308F0CB2CD02EE12EFD2EC150C111E3CF81E0CF
S1130900DF91CF911F910F91FF90EF90DF90CF90E7
S1130910BF900895CF93C82F40E065E084E40E941F
S1130920B3068C2F0E94420281E0CF910895CF93A9
S1130930DF9300D0CDB7DEB790E8998390EC9A832B
S1130940E82FF0E0319781E090E08C0F9D1FE80FD5
S1130950F91F8081860F81500E948A0481E00F90E4
S11309600F90DF91CF910895CF93C82F40E0682F67
S113097081E40E941A06C83028F48C2F0E948D0549
S113098081E001C080E0CF910895CF93DF93EC0123
S11309900E94BB050E94C005CE010E94C405DF91E0
S11309A0CF9108959FEB980F943028F441E00E9472
S11309B01A0681E0089580E008959FEB980F943023
S11309C060F4483029F441E00E94B30681E00895C0
S11309D040E00E94B30681E0089580E008959FEB13
S11309E0980F943070F4483029F440E00E94B30624
S11309F081E00895493039F441E00E94B30681E072
S1130A00089580E0089581E00895CF93C82F40E0D1
S1130A10682F81E40E941A06C83028F48C2F0E94A3
S1130A208D0581E001C080E0CF910895CF93DF93DD
S1130A30EC010E94BB050E94C005CE010E94C405C2
S1130A4028813981C901880F991F880F991F280FA0
S1130A50391FA8EEB3E00E94E60B26EF37E240E030
S1130A6050E00E949F0B39832883DF91CF91089532
S1130A700E941001813011F40E94F10180E090E0A5
S1130A80089596B1906896B9813089F048F0823023
S1130A90A1F487B18F7B87B987B18F7787B90DC0F0
S1130AA087B18F7787B987B1806487B906C087B16A
S1130AB0806887B987B1806487B9413071F018F0D4
S1130AC04230A9F01DC086B1816086B986B18260CA
S1130AD086B986B18B7F86B913C086B18E7F86B9FD
S1130AE086B18D7F86B986B1846086B909C086B126
S1130AF0816086B986B18D7F86B986B1846086B9F6
S1130B00611104C087B18F7D87B905C0613019F4C4
S1130B1087B1806287B981E00895E82F87B1807E2C
S1130B2087B98E2F90E08830910518F5FC01E65DB9
S1130B30FF4F0C94E00B87B187B91BC087B181606C
S1130B4087B917C087B1826087B913C087B1836042
S1130B5087B90FC087B1846087B90BC087B185603E
S1130B6087B907C087B1866087B903C087B187603A
S1130B7087B981E0089586B1806486B981E00895DB
S1130B80349BFECF81E00895FC013D990FC024B150
S1130B90422F50E05183408395B1292F30E0322F0A
S1130BA02227242B352B3183208314C03D9B12C074
S1130BB024B1229526952695237030E03183208335
S1130BC085B190E0880F991F880F991F282B392B26
S1130BD03183208386B18F7E86B981E008951F9288
S1130BE00F920FB60F9211242F933F934F935F935D
S1130BF06F937F938F939F93AF93BF93EF93FF93E1
S1130C00E0917000F091710080916E0090916F00FE
S1130C100995FF91EF91BF91AF919F918F917F9132
S1130C206F915F914F913F912F910F900FBE0F9055
S1130C301F9018959FEB980F943008F086C04230AF
S1130C4008F085C0823449F118F4813441F081C040
S1130C50833409F440C0843409F45AC07AC0411181
S1130C600DC02AB381E090E002C0880F991F6A95F5
S1130C70E2F7809582238ABB81E00895413009F030
S1130C806AC02AB381E090E002C0880F991F6A9578
S1130C90E2F7822B8ABB81E0089541110DC027B38E
S1130CA081E090E002C0880F991F6A95E2F7809571
S1130CB0822387BB81E00895413009F04EC027B3F9
S1130CC081E090E002C0880F991F6A95E2F7822BB9
S1130CD087BB81E0089541110DC024B381E090E009
S1130CE002C0880F991F6A95E2F78095822384BB1E
S1130CF081E00895413099F524B381E090E002C089
S1130D00880F991F6A95E2F7822B84BB81E00895CE
S1130D1041110DC021B381E090E002C0880F991FFA
S1130D206A95E2F78095822381BB81E00895413082
S1130D30C1F421B381E090E002C0880F991F6A9545
S1130D40E2F7822B81BB81E0089580E0089580E082
S1130D50089581E0089581E0089581E0089581E097
S1130D60089581E008959FEB980F943008F06BC0CC
S1130D70423008F06AC0823409F118F4813439F041
S1130D8066C0833491F1843409F446C060C02BB347
S1130D9081E090E0062E02C0880F991F0A94E2F7C2
S1130DA0809582238BBB8BB350E002C0440F551F48
S1130DB06A95E2F7482B4BBB81E0089528B381E0A4
S1130DC090E0062E02C0880F991F0A94E2F78095DE
S1130DD0822388BB88B350E002C0440F551F6A9534
S1130DE0E2F7482B48BB81E0089525B381E090E009
S1130DF0062E02C0880F991F0A94E2F78095822379
S1130E0085BB85B350E002C0440F551F6A95E2F7D5
S1130E10482B45BB81E0089522B381E090E0062E83
S1130E2002C0880F991F0A94E2F78095822382BB3F
S1130E3082B350E002C0440F551F6A95E2F7482B75
S1130E4042BB81E0089580E0089580E0089581E048
S1130E5008951F920F920FB60F9211242F933F9370
S1130E604F935F936F937F938F939F93AF93BF93AE
S1130E70EF93FF93E0917C00F0917D00309729F08F
S1130E8080917200909173000995FF91EF91BF9149
S1130E90AF919F918F917F916F915F914F913F910E
S1130EA02F910F900FBE0F901F9018951F920F92C5
S1130EB00FB60F9211242F933F934F935F936F9329
S1130EC07F938F939F93AF93BF93EF93FF93E0919F
S1130ED07A00F0917B00309729F080917400909112
S1130EE075000995FF91EF91BF91AF919F918F91FB
S1130EF07F916F915F914F913F912F910F900FBE12
S1130F000F901F9018951F920F920FB60F921124F5
S1130F102F933F934F935F936F937F938F939F93FD
S1130F20AF93BF93EF93FF93E0917800F091790032
S1130F30309729F080917600909177000995FF9180
S1130F40EF91BF91AF919F918F917F916F915F913D
S1130F504F913F912F910F900FBE0F901F901895B6
S1130F6080E487BB8DB180648DB98DB18F7E8DB9DE
S1130F708DB18E7F8DB98DB18D7F8DB98EB18E7F00
S1130F808EB90895882319F0813029F008958DB120
S1130F90877F8DB908958DB188608DB908958823B0
S1130FA019F0813029F008958DB18B7F8DB90895A2
S1130FB08DB184608DB90895811104C08DB18062B2
S1130FC08DB90895813019F48DB18F7D8DB908954F
S1130FD0779BFECF2FB1FC01208308958DB18068EB
S1130FE08DB90895009741F090938100809380001B
S1130FF070937F0060937E0008951F920F920FB646
S11310000F9211242F933F934F935F936F937F938A
S11310108F939F93AF93BF93EF93FF93E0918000DF
S1131020F091810080917E0090917F000995FF915D
S1131030EF91BF91AF919F918F917F916F915F914C
S11310404F913F912F910F900FBE0F901F901895C5
S11310508130D1F028F0823081F08330E1F021C07A
S113106083B7877F83BF83B78F7B83BF83B78F7E2D
S113107083BF83B78F7D83BF14C083B7806483BF6E
S113108083B7886083BF0DC083B7886083BF83B78D
S11310908F7B83BF06C083B7806483BF83B7877F9A
S11310A083BF81E008958230C9F128F4882351F088
S11310B08130F1F074C0833009F446C0843009F4FF
S11310C059C06DC083B78E7F83BF83B7826083BFEF
S11310D083B78B7F83BF85E891EBA5E8B9E3809361
S11310E0960090939700A0939800B093990057C0EE
S11310F083B7816083BF83B7826083BF83B78B7FED
S113110083BF85E891EBA5E0BBE3809396009093C1
S11311109700A0939800B093990041C083B78E7F45
S113112083BF83B78D7F83BF83B7846083BF85E824
S113113091EBA5E0BCE38093960090939700A09375
S11311409800B09399002BC083B7816083BF83B7A5
S11311508D7F83BF83B7846083BF85E891EBA5E06F
S1131160BDE38093960090939700A0939800B0936A
S1131170990015C083B7816083BF83B78D7F83BF18
S113118083B78B7F83BF85E891EBA5E0B8E38093B9
S1131190960090939700A0939800B093990081E0F3
S11311A00895833049F0843071F483B78F7E83BF10
S11311B083B7806283BF0DC083B7806183BF83B769
S11311C0806283BF06C083B78F7E83BF83B78F7D62
S11311D083BF81E00895442319F0413059F01AC0C7
S11311E020E030E04FE753E40E94320B0E94510AA2
S11311F06CBF10C020E030E04FE753E40E94320B94
S113120020E030E04FE753E40E94DF0990580E9449
S1131210510A6CBF81E00895833019F0843041F0A5
S11312200EC083B7806183BF83B7806283BF0DC064
S113123083B78F7E83BF83B7806283BF06C083B7C3
S11312408F7E83BF83B78F7D83BF81E0089566233C
S113125019F0613099F024C099E2899F812D1124FD
S113126082958F704EEF51E0849F9001859F300DE1
S11312701124C901959587958CBF12C099E2899F65
S1131280812D112482958F704EEF51E0849F90013F
S1131290859F300D1124C9019595879580958CBF44
S11312A081E008951F920F920FB60F9211242F938D
S11312B03F934F935F936F937F938F939F93AF93DA
S11312C0BF93EF93FF9380918C0090918D00892BB5
S11312D0C1F18091820090918300A0918400B0912B
S11312E08500BC01CD016F5F7F4F8F4F9F4F60938F
S11312F082007093830080938400909385000E9401
S1131300800A209192003091930040919400509172
S113131095000E944C0A811114C080918E0082BFF6
S11313201092820010928300109284001092850023
S1131330E0918C00F0918D0080918A0090918B0057
S11313400995FF91EF91BF91AF919F918F917F91FB
S11313506F915F914F913F912F910F900FBE0F901E
S11313601F9018951F920F920FB60F9211242F936E
S11313703F934F935F936F937F938F939F93AF9319
S1131380BF93EF93FF93E0918800F0918900309729
S113139029F080918600909187000995FF91EF9143
S11313A0BF91AF919F918F917F916F915F914F9179
S11313B03F912F910F900FBE0F901F90189550588A
S11313C0BB27AA270E94F7090C94F80A0E94EA0A8C
S11313D038F00E94F10A20F039F49F3F19F426F402
S11313E00C94E70A0EF4E095E7FB0C94E10AE92F6C
S11313F00E94090B58F3BA1762077307840795070D
S113140020F079F4A6F50C942B0B0EF4E0950B2E3A
S1131410BA2FA02D0B01B90190010C01CA01A00142
S11314201124FF27591B99F0593F50F4503E68F19D
S11314301A16F040A22F232F342F4427585FF3CFDE
S1131440469537952795A795F0405395C9F77EF4AF
S11314501F16BA0B620B730B840BBAF09150A1F0F8
S1131460FF0FBB1F661F771F881FC2F70EC0BA0F7E
S1131470621F731F841F48F4879577956795B79506
S1131480F7959E3F08F0B0CF9395880F08F0992701
S1131490EE0F9795879508950E94BD0A08F481E0A0
S11314A008950E94110B88F09F5798F0B92F99273F
S11314B0B751B0F0E1F0660F771F881F991F1AF03B
S11314C0BA95C9F714C0B13091F00E942B0BB1E06A
S11314D008950C942B0B672F782F8827B85F39F069
S11314E0B93FCCF3869577956795B395D9F73EF4D4
S11314F090958095709561957F4F8F4F9F4F08957C
S1131500E89409C097FB3EF4909580957095619599
S11315107F4F8F4F9F4F9923A9F0F92F96E9BB274F
S11315209395F695879577956795B795F111F8CFCB
S1131530FAF4BB0F11F460FF1BC06F5F7F4F8F4F36
S11315409F4F16C0882311F096E911C0772321F02C
S11315509EE8872F762F05C0662371F096E8862FC4
S113156070E060E02AF09A95660F771F881FDAF71B
S1131570880F9695879597F90895990F0008550F48
S1131580AA0BE0E8FEEF16161706E807F907C0F005
S113159012161306E407F50798F0621B730B840B0D
S11315A0950B39F40A2661F0232B242B252B21F4E7
S11315B008950A2609F4A140A6958FEF811D811D87
S11315C0089597F99F6780E870E060E008959FEFC1
S11315D080EC089500240A941616170618060906C6
S11315E0089500240A941216130614060506089595
S11315F0092E0394000C11F4882352F0BB0F40F41D
S1131600BF2B11F460FF04C06F5F7F4F8F4F9F4F5C
S1131610089557FD9058440F551F59F05F3F71F0DE
S11316204795880F97FB991F61F09F3F79F0879545
S11316300895121613061406551FF2CF4695F1DFCE
S113164008C0161617061806991FF1CF869571055E
S1131650610508940895E894BB2766277727CB0192
S113166097F908950E94450B0C94F80A0E94EA0A1F
S113167038F00E94F10A20F0952311F00C94E10A4D
S11316800C94E70A11240C942C0B0E94090B70F3A0
S1131690959FC1F3950F50E0551F629FF001729F13
S11316A0BB27F00DB11D639FAA27F00DB11DAA1F22
S11316B0649F6627B00DA11D661F829F2227B00D6F
S11316C0A11D621F739FB00DA11D621F839FA00DFA
S11316D0611D221F749F3327A00D611D231F849F4A
S11316E0600D211D822F762F6A2F11249F575040A1
S11316F09AF0F1F088234AF0EE0FFF1FBB1F661F1C
S1131700771F881F91505040A9F79E3F510580F0E4
S11317100C94E10A0C942C0B5F3FE4F3983ED4F351
S1131720869577956795B795F795E7959F5FC1F788
S1131730FE2B880F911D9695879597F90895A1E240
S11317401A2EAA1BBB1BFD010DC0AA1FBB1FEE1F37
S1131750FF1FA217B307E407F50720F0A21BB30B82
S1131760E40BF50B661F771F881F991F1A9469F7FE
S113177060957095809590959B01AC01BD01CF015A
S11317800895052E97FB1EF400940E94D80B57FD74
S113179007D00E949F0B07FC03D04EF40C94D80B87
S11317A050954095309521953F4F4F4F5F4F089589
S11317B090958095709561957F4F8F4F9F4F0895B9
S11317C0EE0FFF1F0590F491E02D0994A29FB00144
S11317D0B39FC001A39F700D811D1124911DB29F61
S11117E0700D811D1124911D0895F894FFCF02
S11117EE54656D70657261747572653A200001
S9030000FC
